:020000040800F2
:10000000008000202D01000800000000000000001A
:1000100000000000000000000000000000000000E0
:1000200000000000000000000000000000000000D0
:1000300000000000000000000000000000000000C0
:1000400000000000000000000000000000000000B0
:1000500000000000000000000000000000000000A0
:100060000000000000000000000000000000000090
:100070000000000000000000000000000000000080
:100080000000000000000000000000000000000070
:100090000000000000000000000000000000000060
:1000A0000000000000000000000000000000000050
:1000B0000000000000000000000000000000000040
:1000C00000B583B002006B4607331A706B460733E6
:1000D000180000F02EF8C04603B000BD10B5104B5C
:1000E00001221A60A023DB051A68A023DB050D4955
:1000F0000A401A600C4B1B682022134006D00A4BA2
:100100001A68094B20218A431A6005E0064B1A68D9
:10011000054B20210A431A605920FFF7D1FFE9E778
:1001200034100240FFF7FFFF1400005004488546DA
:10013000D4E703B401460348ABBE03BC70470000DC
:08014000008000200300000014
:040000050800012DC1
:00000001FF
