:020000040800F2
:1000000000800020890100080000000000000000BE
:1000100000000000000000000000000000000000E0
:1000200000000000000000000000000000000000D0
:1000300000000000000000000000000000000000C0
:1000400000000000000000000000000000000000B0
:1000500000000000000000000000000000000000A0
:100060000000000000000000000000000000000090
:100070000000000000000000000000000000000080
:100080000000000000000000000000000000000070
:100090000000000000000000000000000000000060
:1000A0000000000000000000000000000000000050
:1000B0000000000000000000000000000000000040
:1000C00000B583B002006B4607331A706B460733E6
:1000D000180000F05CF8C04603B000BD00B583B066
:1000E000234B1A68224B05210A431A60A023DB0523
:1000F0001A68A023DB051F490A401A601E4B1A68C4
:100100001D4B1E490A401A606B46073300221A70C5
:100110001B4B1A6880239B01134015D0194B1A689A
:10012000184B20218A431A606B4607331B78012243
:100130005340DBB2002BEBD06B46073301221A7021
:100140004E20FFF7BDFFE3E70E4B1A680D4B202151
:100150000A431A606B4607331B78002BD8D06B46D6
:10016000073300221A705920FFF7AAFFD0E7C046D4
:1001700034100240FFF7FFFF00080050FFFFFFF3BD
:10018000100800501400005004488546A6E703B448
:1001900001460348ABBE03BC70470000008000204E
:0401A0000300000058
:040000050800018965
:00000001FF
