:020000040800F2
:1000000000800020FD00000800000000000000004B
:1000100000000000000000000000000000000000E0
:1000200000000000000000000000000000000000D0
:1000300000000000000000000000000000000000C0
:1000400000000000000000000000000000000000B0
:1000500000000000000000000000000000000000A0
:100060000000000000000000000000000000000090
:100070000000000000000000000000000000000080
:100080000000000000000000000000000000000070
:100090000000000000000000000000000000000060
:1000A0000000000000000000000000000000000050
:1000B0000000000000000000000000000000000040
:1000C00000B583B002006B4607331A706B460733E6
:1000D000180000F016F8C04603B000BD10B5A0230C
:1000E000DB051A68A023DB0503490A401A60582083
:1000F000FFF7E6FFFBE7C046FFF7FFFF0448854632
:10010000ECE703B401460348ABBE03BC70470000F4
:08011000008000200300000044
:04000005080000FDF2
:00000001FF
