:020000040800F2
:1000000000800020E900000800000000000000005F
:1000100000000000000000000000000000000000E0
:1000200000000000000000000000000000000000D0
:1000300000000000000000000000000000000000C0
:1000400000000000000000000000000000000000B0
:1000500000000000000000000000000000000000A0
:100060000000000000000000000000000000000090
:100070000000000000000000000000000000000080
:100080000000000000000000000000000000000070
:100090000000000000000000000000000000000060
:1000A0000000000000000000000000000000000050
:1000B0000000000000000000000000000000000040
:1000C00000B583B002006B4607331A706B460733E6
:1000D000180000F00CF8C04603B000BD10B5582061
:1000E000FFF7EEFFFBE7000004488546F6E703B4A0
:1000F00001460348ABBE03BC7047000000800020EF
:0401000003000000F8
:04000005080000E906
:00000001FF
