:020000040800F2
:100000000080002041010008000000000000000006
:1000100000000000000000000000000000000000E0
:1000200000000000000000000000000000000000D0
:1000300000000000000000000000000000000000C0
:1000400000000000000000000000000000000000B0
:1000500000000000000000000000000000000000A0
:100060000000000000000000000000000000000090
:100070000000000000000000000000000000000080
:100080000000000000000000000000000000000070
:100090000000000000000000000000000000000060
:1000A0000000000000000000000000000000000050
:1000B0000000000000000000000000000000000040
:1000C00000B583B002006B4607331A706B460733E6
:1000D000180000F038F8C04603B000BD124B0122F2
:1000E0001A60A023DB051A68A023DB050F490A402C
:1000F0001A600F4B1A680E4B0E490A401A600E4BDD
:100100001A6880239B01134006D00C4B1A680B4BD6
:1001100020218A431A60F2E7084B1A68074B202116
:100120000A431A60EBE7C04634100240FFF7FFFFB6
:1001300000080050FFFFFFF31008005014000050AB
:1001400004488546CAE703B401460348ABBE03BC76
:0C01500070470000008000200300000049
:0400000508000141AD
:00000001FF
