:020000040800F2
:1000000000800020850100080000000000000000C2
:1000100000000000000000000000000000000000E0
:1000200000000000000000000000000000000000D0
:1000300000000000000000000000000000000000C0
:1000400000000000000000000000000000000000B0
:1000500000000000000000000000000000000000A0
:100060000000000000000000000000000000000090
:100070000000000000000000000000000000000080
:100080000000000000000000000000000000000070
:100090000000000000000000000000000000000060
:1000A0000000000000000000000000000000000050
:1000B0000000000000000000000000000000000040
:1000C00000B583B002006B4607331A706B460733E6
:1000D000180000F05AF8C04603B000BD00B583B068
:1000E0000023019302E0019B01330193019B044A29
:1000F0009342F8DD5420FFF7E3FFC04603B000BD94
:100100003F420F0000B583B0194B01221A60A023B3
:10011000DB051A68A023DB0516490A401A60164B56
:100120001A68154B15490A401A606B4607330022BE
:100130001A70134B1A68124B20210A431A60104B95
:100140001A680F4B01210A431A60FFF7C7FF0C4BD7
:100150001A680B4B01218A431A60094B1A68084B35
:1001600020218A431A60FFF7B9FFC046E1E7C04685
:1001700034100240FFF7FFFF00080050FFFFFFF3BD
:100180001400005004488546BCE703B40146034808
:10019000ABBE03BC704700000080002003000000DD
:040000050800018569
:00000001FF
